:020000040800F2
:100000007806002029020008151B0008CD180008FA
:10001000111B0008310800089D1C000800000000AA
:10002000000000000000000000000000891B000824
:10003000E908000800000000851B0008E11B00081B
:10004000430200084302000843020008430200087C
:10005000430200084302000843020008430200086C
:10006000430200084302000843020008430200085C
:10007000430200084302000843020008430200084C
:10008000430200084302000843020008430200083C
:10009000430200084302000843020008430200082C
:1000A000430200084302000843020008430200081C
:1000B000430200084302000843020008430200080C
:1000C00043020008430200084302000843020008FC
:1000D00043020008430200084302000843020008EC
:1000E00043020008430200084302000843020008DC
:1000F00043020008430200084302000843020008CC
:1001000043020008430200084302000843020008BB
:1001100043020008430200084302000843020008AB
:10012000430200084302000843020008430200089B
:10013000430200084302000843020008430200088B
:10014000430200084302000843020008430200087B
:10015000430200084302000843020008430200086B
:10016000430200084302000843020008430200085B
:100170004302000843020008430200080000000098
:10018000430200084302000800F002F800F03CF8C7
:100190000AA090E8000C82448344AAF10107DA45E2
:1001A00001D100F031F8AFF2090EBAE80F0013F0F8
:1001B000010F18BFFB1A43F001031847501E00003F
:1001C000701E0000103A24BF78C878C1FAD85207D0
:1001D00024BF30C830C144BF04680C6070470000C1
:1001E0000023002400250026103A28BF78C1FBD840
:1001F000520728BF30C148BF0B6070471FB501F0E0
:10020000EFFE1FBD10B510BD00F0D0F81146FFF78E
:10021000F5FF01F08DFD00F0EEF803B4FFF7F2FFFB
:1002200003BC00F0F5F80000094880470948004782
:10023000FEE7FEE7FEE7FEE7FEE7FEE7FEE7FEE796
:10024000FEE7FEE704480549054A064B70470000F3
:10025000891C000889010008780000207806002029
:10026000780200207802002053EA020C00F0698036
:100270002DE9F04B4FF00006002B1FBFB3FA83F5BA
:1002800003FA05F424FA05F65E4012BF1643B2FAEB
:1002900082F502FA05F4C5F120051EBF22FA05FC1D
:1002A00044EA0C04203556EA044C4FEA144418BFC3
:1002B000641C4FF000084FF00009904271EB030CF2
:1002C00039D3002919BFB1FA81F701FA07F6B0FA5C
:1002D00080F700FA07F6C7F120071EBF20FA07FCD7
:1002E00046EA0C062037B6FBF4FCA7EB0507103FE7
:1002F00007F01F0BCBF120062CFA06F60CFA0BFBCD
:1003000044BFB3460026202FA4BF5E464FF0000B2B
:100310005BEA060C08BF4FF0010B19EB0B0948EB29
:100320000608ABFB027C06FB02CC0BFB03CCC01B1C
:1003300071EB0C01C1E70B46024641464846BDE859
:10034000F08B13B5084318BF4FF0FF300146AFF3F1
:100350000080BDE81C4070474FF0000200B5134616
:1003600094469646203922BFA0E80C50A0E80C50D5
:10037000B1F12001BFF4F7AF090728BFA0E80C5086
:1003800048BF0CC05DF804EB890028BF40F8042B7F
:1003900008BF704748BF20F8022B11F0804F18BFEC
:1003A00000F8012B7047704770477047754600F0A2
:1003B0002BF8AE4605006946534620F007008546F7
:1003C00018B020B5FFF73EFFBDE820404FF0000613
:1003D0004FF000074FF000084FF0000BAC46ACE8C0
:1003E000C009ACE8C009ACE8C009ACE8C00921F01C
:1003F00007018D46704710B50446AFF300802046D4
:10040000BDE81040FFF709BF00487047100000200A
:1004100001491820ABBEFEE726000200704700002D
:1004200080B582B08DF807008DF806109DF8071092
:1004300040F27000C2F2000001709DF8061040F218
:100440007202C2F20002117040F61842C4F20202B7
:100450000021CFF6FF711160007838B9FFE740F254
:100460007101C2F20001002008700FE040F270003C
:10047000C2F200000078012807D1FFE740F27101C5
:10048000C2F2000101200870FFE7FFE740F27200AE
:10049000C2F20000007818B9FFE700F055F81CE040
:1004A00040F27200C2F200000078012814D1FFE788
:1004B00048F28C21C4F241210120086048F28421D5
:1004C000C4F24121086048F28821C4F24121002091
:1004D000086000F04DF8FFE7FFE702B080BD0000C4
:1004E00080B584B002A9009181ED000B8DF8070062
:1004F00040F27200C2F20000007868B9FFE700988D
:1005000090ED000B9DF8070040F27101C2F200016E
:10051000097800F04BF815E040F27200C2F20000DA
:10052000007801280DD1FFE7009890ED000B9DF8B1
:10053000070040F27101C2F20001097800F096F85C
:10054000FFE7FFE704B080BD48F28021C4F24121FB
:100550000020086048F29421C4F24121086048F26A
:100560009021C4F24121086001220A6008607047AE
:1005700048F28023C4F241230020186048F29421FD
:10058000C4F24121086048F2902CC4F2412CCCF80E
:1005900000000122CCF80020CCF8000018601A609E
:1005A000186008600A6008607047000080B586B077
:1005B0008DED040B8DF80F008DF80E109DED040BE2
:1005C00000F03AF901909DF80F109DF80E0040EAF6
:1005D000C1000290029880F0FF0140EA014040F61D
:1005E000184CC4F2020CCCF8000048F28021C4F28E
:1005F000412101220A60002008609DF80730029323
:10060000029B83F0FF0E43EA0E43CCF800300A60F1
:1006100008609DF806300293029B83F0FF0E43EAC8
:100620000E43CCF800300A6008609DF80530029354
:10063000029B83F0FF0E43EA0E43CCF800300A60C1
:1006400008609DF804300293029B83F0FF0E43EA9A
:100650000E43CCF800300A60086048F29421C4F2DE
:1006600041210A60086006B080BD000080B584B0FA
:100670008DED020B8DF807008DF806109DED020B35
:1006800000F0DAF8009000988DF8040000208DF852
:100690000500FFE79DF8050007281BDCFFE79DF834
:1006A00004009DF80510C84000F0010048F28C21BC
:1006B000C4F24121086048F28021C4F241210120A6
:1006C000086000200860FFE79DF8050001308DF804
:1006D0000500DFE70098000A8DF8040000208DF87F
:1006E0000500FFE79DF8050007281BDCFFE79DF8E4
:1006F00004009DF80510C84000F0010048F28C216C
:10070000C4F24121086048F28021C4F24121012055
:10071000086000200860FFE79DF8050001308DF8B3
:100720000500DFE7BDF802008DF8040000208DF819
:100730000500FFE79DF8050007281BDCFFE79DF893
:1007400004009DF80510C84000F0010048F28C211B
:10075000C4F24121086048F28021C4F24121012005
:10076000086000200860FFE79DF8050001308DF863
:100770000500DFE79DF803008DF8040000208DF8E8
:100780000500FFE79DF8050007281BDCFFE79DF843
:1007900004009DF80510C84000F0010048F28C21CB
:1007A000C4F24121086048F28021C4F241210120B5
:1007B000086000200860FFE79DF8050001308DF813
:1007C0000500DFE79DF807109DF8060040EAC1002C
:1007D0008DF8040000208DF80500FFE79DF8050066
:1007E00007281BDCFFE79DF804009DF80510C840B2
:1007F00000F0010048F28C21C4F24121086048F267
:100800008021C4F241210120086000200860FFE738
:100810009DF8050001308DF80500DFE748F29421CE
:10082000C4F24121012008600020086004B080BDAE
:10083000FFE7FEE70000000080B584B08DED000BFF
:1008400040F27000C2F20000007890B9FFE79DED21
:10085000000B51EC100B9FED220B53EC102B01F011
:10086000C1FA41EC100B51EC100B01F08DFA039022
:100870002CE040F27000C2F200000078012812D192
:10088000FFE79DED000B51EC100B9FED130B53ECAC
:10089000102B01F0A7FA41EC100B51EC100B01F0FA
:1008A00073FA039012E0FFE79DED000B51EC100B83
:1008B0009FED090B53EC102B01F094FA41EC100B57
:1008C00051EC100B01F060FA0390FFE7039804B0BD
:1008D00080BD00BF00BF00BF79A7DFDE65DC374009
:1008E00095D626E80B2E41407047000081B0EFF30B
:1008F000108072B60090FFE7FEE7000080B584B07C
:10090000039000F025FA02900398019001980130BD
:1009100048B1FFE740F20400C2F2000001780198FC
:1009200008440190FFE7FFE700F012FA0299401A2D
:100930000199884201D2FFE7F6E704B080BD0000CC
:100940008EB00D900C9100200A90099008900B90A9
:10095000FFE70B980F2800F2CC81FFE70B990120ED
:1009600088400A900C9800680A99084009900998F4
:100970000A99884240F0B881FFE70C98406800F07F
:100980000300012807D0FFE70C98406800F003003F
:1009900002282FD1FFE70D98806808900B9841003E
:1009A000032000FA01F10898884308900C98C06869
:1009B0000B99490000FA01F108980843089008983B
:1009C0000D9988600D98406808900B99012000FAF5
:1009D00001F10898884308900C984068C0F3001013
:1009E0000B9900FA01F108980843089008980D99AE
:1009F0004860FFE70C98406800F00300032818D017
:100A0000FFE70D98C06808900B984100032000FA9A
:100A100001F10898884308900C9880680B99490068
:100A200000FA01F108980843089008980D99C860E9
:100A3000FFE70C98406800F00300022826D1FFE78A
:100A40000D980B996FF0030202EA51010844006A05
:100A500008900B9800F0070081000F2000FA01F1C8
:100A60000898884308900C9800690B9901F00701D9
:100A7000890000FA01F108980843089008980D9938
:100A80000B9B02EA530211440862FFE70D980068CD
:100A900008900B984100032000FA01F10898884360
:100AA00008900C98406800F003000B99490000FA88
:100AB00001F108980843089008980D9908600C986F
:100AC00080798007002800F00E81FFE7FFE7002013
:100AD000079043F64400C4F20200016841F48041EB
:100AE0000160006800F4804007900798FFE70B98CA
:100AF00020F0030043F60801C4F2010140580890B9
:100B00000B9800F0030081000F2000FA01F1089813
:100B1000884308900D980021C4F20201884203D155
:100B2000FFE7002006905EE00D9840F20041C4F21D
:100B30000201884203D1FFE70120059050E00D98A3
:100B400040F60001C4F20201884203D1FFE702200F
:100B5000049042E00D9840F60041C4F20201884240
:100B600003D1FFE70320039034E00D9841F2000128
:100B7000C4F20201884203D1FFE70420029026E07C
:100B80000D9841F20041C4F20201884203D1FFE70F
:100B90000520019018E00D9841F60001C4F2020111
:100BA000884203D1FFE7062000900AE00D9941F644
:100BB0000042C4F202020820914208BF07200090C0
:100BC000FFE700980190FFE701980290FFE7029885
:100BD0000390FFE703980490FFE704980590FFE770
:100BE00005980690FFE70698C0B20B9901F0030143
:100BF000890000FA01F108980843089008980B99B9
:100C000021F0030143F60802C4F20102885043F6C2
:100C10000840C4F2010000680890099908988843C8
:100C200008900C988079C006002805D5FFE709993F
:100C3000089808430890FFE7089843F60841C4F273
:100C40000101086043F60C40C4F2010000680890FE
:100C500009990898884308900C98807980060028A4
:100C600005D5FFE70999089808430890FFE7089819
:100C700043F60C41C4F20101086043F60440C4F29B
:100C800001000068089009990898884308900C981A
:100C900080798007002805D5FFE70999089808435F
:100CA0000890FFE7089843F60441C4F20101086088
:100CB00043F60040C4F201000068089009990898C2
:100CC000884308900C988079C00728B1FFE70999FC
:100CD000089808430890FFE7089843F60041C4F2DB
:100CE00001010860FFE7FFE7FFE70B9801300B9079
:100CF0002FE60EB07047000083B00290ADF80610EA
:100D0000029840690090009ABDF8060002EA0001CE
:100D1000904340EA01400299886103B070470000A7
:100D200082B00190ADF802108DF801209DF801000D
:100D300028B1FFE7BDF802000199886105E0BDF820
:100D40000200000401998861FFE702B070470000CB
:100D500040F27400C2F200000068704740F20400E4
:100D6000C2F20000027840F27401C2F20001086889
:100D7000104408607047000080B543F60041C4F29B
:100D80000201086840F400700860086840F4806060
:100D90000860086840F480700860032000F080F864
:100DA0000F2000F005F800F03BF8002080BD0000A7
:100DB00080B582B0009040F20000C2F200000068EE
:100DC00040F20401C2F200010A784FF47A71B1FBDB
:100DD000F2F1B0FBF1F000F071FD20B1FFE701206E
:100DE0008DF8070018E000980F280DD8FFE700994C
:100DF0004FF0FF30002200F039F8009840F208016F
:100E0000C2F20001086003E001208DF8070003E052
:100E100000208DF80700FFE79DF8070002B080BDB5
:100E200082B0FFE70020019043F64400C4F20200C4
:100E3000016841F480410160006800F48040019045
:100E40000198FFE7FFE70020009043F64000C4F25E
:100E50000200016841F080510160006800F080509C
:100E600000900098FFE702B07047000080B586B0A0
:100E70008DF81700049103920020029000F010FFFB
:100E800002909DF91700019002980499039A00F0CE
:100E900043FE0146019800F00BFF06B080BD000044
:100EA00080B582B00190019800F024FF02B080BDAF
:100EB00080B584B002900191029820B9FFE701202B
:100EC0008DF80F0021E1019843F60041C4F20201C0
:100ED000096801F00701884212D9FFE7019943F63A
:100EE0000040C4F202000170006800F007000199A0
:100EF000884204D0FFE701208DF80F0005E1FFE7ED
:100F000002980078800700282AD5FFE70298007829
:100F10004007002809D5FFE743F60801C4F20201A3
:100F2000086840F4E0500860FFE702980078000786
:100F3000002809D5FFE743F60801C4F2020108685A
:100F400040F460400860FFE743F60801C4F2020184
:100F5000086820F0F000029A926810430860FFE7EA
:100F600002980078C00700286ED0FFE7029840681A
:100F7000012811D1FFE743F60000C4F20200006827
:100F800000F400310020B0EB514F04D1FFE7012005
:100F90008DF80F00B9E02CE002984068022805D0D7
:100FA000FFE702984068032811D1FFE743F60000ED
:100FB000C4F20200006800F000710020B0EB516F35
:100FC00004D1FFE701208DF80F009EE010E043F60A
:100FD0000000C4F20200006800F002010020B0EB43
:100FE000510F04D1FFE701208DF80F008DE0FFE7DE
:100FF000FFE743F60801C4F20201086820F003008D
:10100000029A526810430860FFF7A2FE0090FFE7C3
:1010100043F60800C4F20200006800F00C000299D8
:101020004968B0EB810F0ED0FFE7FFF791FE009902
:10103000401A41F28931884204D3FFE703208DF83A
:101040000F0062E0E4E7FFE7019843F60041C4F2D5
:101050000201096801F00701884212D2FFE70199F5
:1010600043F60040C4F202000170006800F007007F
:101070000199884204D0FFE701208DF80F0044E079
:10108000FFE702980078400700280CD5FFE743F6F9
:101090000801C4F20201086820F4E050029AD26804
:1010A00010430860FFE702980078000700280DD57C
:1010B000FFE743F60801C4F20201086820F460402B
:1010C000029A126940EAC2000860FFE700F022F8C5
:1010D00043F60801C4F202010968C9B20A0941F6DF
:1010E000FA71C0F60001895CC84040F20001C2F20A
:1010F0000001086040F20800C2F200000068FFF73B
:1011000057FE00208DF80F00FFE79DF80F0004B098
:1011100080BD000080B586B000200590049003904B
:10112000029043F60800C4F20200006800F00C00D0
:101130000146019140B1FFE7019804280AD0FFE77A
:10114000019808280CD04FE042F20040C0F2F400B1
:1011500002904FE047F64000C0F27D10029049E057
:1011600043F60400C4F20200016801F03F0105915A
:1011700000684002002813D5FFE743F60400C4F2DC
:1011800002000068C0F3881047F64001C0F27D11EC
:10119000A0FB0101059A0023FFF766F8049012E016
:1011A00043F60400C4F202000068C0F3881042F263
:1011B0000041C0F2F401A0FB0101059A0023FFF7F2
:1011C00053F80490FFE743F60400C4F202000068FD
:1011D00000F44031022000EBD130039004980399D1
:1011E000B0FBF1F0029005E042F20040C0F2F400E2
:1011F0000290FFE7029806B080BD000080B586B07F
:101200000490049820B9FFE701208DF8170050E3FF
:1012100004980078C007002800F0A580FFE743F697
:101220000800C4F20200006800F00C00042813D08B
:10123000FFE743F60800C4F20200006800F00C006B
:1012400008281ED1FFE743F60400C4F2020000683C
:101250004002002815D5FFE743F60000C4F2020063
:10126000006800F400310020B0EB514F08D0FFE7D8
:101270000498406820B9FFE701208DF8170018E3B3
:1012800070E0FFE704984068B0F5803F09D1FFE7C0
:1012900043F60001C4F20201086840F4803008609F
:1012A00020E004984068B0F5A02F0DD1FFE743F689
:1012B0000001C4F20201086840F480200860086858
:1012C00040F4803008600CE043F60001C4F20201F3
:1012D000086820F480300860086820F480200860E6
:1012E000FFE7FFE7FFE704984068E8B1FFE7FFF793
:1012F0002FFD0390FFE743F60000C4F202000068F0
:1013000000F400310020B0EB514F0CD1FFE7FFF7A4
:101310001FFD0399401A652804D3FFE703208DF8C9
:101320001700C6E2E7E71CE0FFF712FD0390FFE7B6
:1013300043F60000C4F20200006800F4003100200F
:10134000B0EB514F0CD0FFE7FFF702FD0399401AB5
:10135000652804D3FFE703208DF81700A9E2E7E72B
:10136000FFE7FFE7FFE7049800788007002840F1D7
:101370009680FFE743F60800C4F20200006810F010
:101380000C0F13D0FFE743F60800C4F20200006818
:1013900000F00C0008282CD1FFE743F60400C4F24B
:1013A000020000684002002823D4FFE743F6000053
:1013B000C4F20200006800F002010020B0EB510FFF
:1013C00009D0FFE70498C068012804D0FFE7012096
:1013D0008DF817006DE243F60001C4F202010868BF
:1013E00020F0F800049A126940EAC2000860FFE7A2
:1013F00054E00498C06870B3FFE70021C4F24721AD
:1014000001200860FFF7A4FC0390FFE743F600000B
:10141000C4F20200006800F002010020B0EB510F9E
:101420000CD1FFE7FFF794FC0399401A032804D37B
:10143000FFE703208DF817003BE2E7E743F60001E2
:10144000C4F20201086820F0F800049A126940EA28
:10145000C200086021E00021C4F24721002008609A
:10146000FFF776FC0390FFE743F60000C4F20200AA
:10147000006800F002010020B0EB510F0CD0FFE734
:10148000FFF766FC0399401A032804D3FFE7032003
:101490008DF817000DE2E7E7FFE7FFE7FFE70498A5
:1014A0000078000700284BD5FFE70498406918B37F
:1014B000FFE740F68061C4F2472101200860FFF792
:1014C00047FC0390FFE743F67400C4F20200006893
:1014D00000F002010020B0EB510F0CD1FFE7FFF745
:1014E00037FC0399401A032804D3FFE703208DF843
:1014F0001700DEE1E7E722E040F68061C4F2472111
:1015000000200860FFF724FC0390FFE743F6740017
:10151000C4F20200006800F002010020B0EB510F9D
:101520000CD0FFE7FFF714FC0399401A032804D3FB
:10153000FFE703208DF81700BBE1E7E7FFE7FFE7D0
:10154000049800784007002840F1CE80FFE7002093
:101550008DF8070043F64000C4F202000068C000A6
:10156000002815D4FFE7FFE70020009043F6400075
:10157000C4F20200016841F080510160006800F08F
:10158000805000900098FFE701208DF80700FFE7EA
:1015900047F20000C4F200000068C005002822D411
:1015A000FFE747F20001C4F20001086840F48070D0
:1015B0000860FFF7CDFB0390FFE747F20000C4F29D
:1015C00000000068C00500280CD4FFE7FFF7C0FB4F
:1015D0000399401A032804D3FFE703208DF817006E
:1015E00067E1EAE7FFE7FFE704988068012809D18F
:1015F000FFE743F67001C4F20201086840F0010001
:1016000008601FE00498806805280DD1FFE743F6C5
:101610007001C4F20201086840F004000860086824
:1016200040F0010008600CE043F67001C4F20201D2
:10163000086820F001000860086820F004000860D5
:10164000FFE7FFE7FFE704988068F8B1FFE7FFF7DF
:101650007FFB0390FFE743F67000C4F202000068CE
:1016600000F002010020B0EB510F0ED1FFE7FFF7B1
:101670006FFB0399401A41F28931884204D3FFE796
:1016800003208DF8170014E1E5E71EE0FFF760FB8B
:101690000390FFE743F67000C4F20200006800F018
:1016A00002010020B0EB510F0ED0FFE7FFF750FB17
:1016B0000399401A41F28931884204D3FFE703209D
:1016C0008DF81700F5E0E5E7FFE79DF80700012832
:1016D00009D1FFE743F64001C4F20201086820F097
:1016E00080500860FFE7FFE704988069002800F059
:1016F000DC80FFE743F60800C4F20200006800F057
:101700000C00082800F08580FFE704988069022813
:101710005CD1FFE76021C4F2472100200860FFF799
:1017200017FB0390FFE743F60000C4F202000068D5
:1017300000F000710020B0EB516F0CD0FFE7FFF715
:1017400007FB0399401A032804D3FFE703208DF811
:101750001700AEE0E7E70499C869D1F820C04B6AEA
:101760008A6A40EA0C0040EA8310D2034FF6FF7306
:101770009A43A2F580321043C96A40EA016043F6F9
:101780000401C4F2020108606021C4F24721012073
:101790000860FFF7DDFA0390FFE743F60000C4F2AC
:1017A0000200006800F000710020B0EB516F0CD116
:1017B000FFE7FFF7CDFA0399401A032804D3FFE7A8
:1017C00003208DF8170074E0E7E721E06021C4F200
:1017D000472100200860FFF7BBFA0390FFE743F6BC
:1017E0000000C4F20200006800F000710020B0EBBD
:1017F000516F0CD0FFE7FFF7ABFA0399401A0328AB
:1018000004D3FFE703208DF8170052E0E7E7FFE776
:101810004AE004988069012804D1FFE701208DF88F
:10182000170046E043F60400C4F20200006802908C
:1018300004988069012831D0FFE7029800F4800005
:101840000499C969884229D1FFE7029800F03F0056
:101850000499096A884221D1FFE7029847F6C071CE
:1018600008400499496AB0EB811F17D1FFE702983D
:1018700000F440300499896AC9034FF6FF7291431E
:10188000A1F58031884209D1FFE7029800F070602D
:101890000499C96AB0EB016F04D0FFE701208DF80D
:1018A000170006E0FFE7FFE7FFE700208DF81700CD
:1018B000FFE79DF8170006B080BD000080B582B03C
:1018C0000190019800F062F902B080BDFFE7FEE7E9
:1018D00080B596B00020159014901390129011903E
:1018E000FFE70020109043F63000C4F202000168C8
:1018F00041F010010160006800F010001090109895
:10190000FFE7FFE700200F9043F63000C4F202002B
:10191000016841F004010160006800F004000F90CC
:101920000F98FFE7FFE700200E9043F63000C4F267
:101930000200016841F020010160006800F0200011
:101940000E900E98FFE7FFE700200D9043F6300061
:10195000C4F20200016841F080010160006800F0FB
:1019600080000D900D98FFE7FFE700200C9043F6F4
:101970003000C4F20200016841F00101016000681A
:1019800000F001000C900C98FFE7FFE700200B909F
:1019900043F63000C4F20200016841F00201016028
:1019A000006800F002000B900B98FFE7FFE70020B3
:1019B0000A9043F63000C4F20200016841F0400191
:1019C0000160006800F040000A900A98FFE7FFE716
:1019D0000020099043F63000C4F20200016841F093
:1019E00008010160006800F0080009900998FFE70D
:1019F00041F20040C4F2020001904FF48061009176
:101A000000220692FFF78CF9069A40F60040C4F2D5
:101A10000200079039210491FFF782F906984FF6EA
:101A2000FF7102911191032103911291139041F2E0
:101A30000000C4F2020011A90891FEF781FF029B89
:101A4000039A0698089911931292139040F6000099
:101A5000C4F20200FEF774FF0198039B069A0899EE
:101A60004FF6FF3CCDF844C012931392FEF768FF87
:101A7000009B0198069A08991193012305931293EC
:101A800013921492FEF75CFF039A0698089949F6A0
:101A9000FF731193129213900020C4F20200FEF71C
:101AA0004FFF029B039A0698089911931292139084
:101AB00040F20040C4F20200FEF742FF029B039A8C
:101AC0000698089911931292139041F60000C4F2FF
:101AD0000200FEF735FF039B069A079808994FF618
:101AE000C67CCDF844C012931392FEF729FFDDF8AF
:101AF00010C0059B069A07980899CDF844C0129328
:101B0000139202221492FEF71BFF16B080BD000054
:101B1000FFE7FEE7FFE7FEE788B007900691059232
:101B2000079800F0070004900498C0F1070005280A
:101B300003D3FFE70420019004E00498C0F10700FC
:101B40000190FFE70198039004980430062803D819
:101B5000FFE70020009003E0049803380090FFE7BF
:101B60000098029006980399012202FA01F10139C6
:101B70000840029B984005999A40013A1140084359
:101B800008B07047704700007047000080B582B011
:101B9000009000980138B0F1807F03D3FFE7012067
:101BA000019019E0009801384EF21401CEF20001C4
:101BB00008604FF0FF300F2100F07AF84EF2180164
:101BC000CEF20001002008604EF21002CEF20002B8
:101BD000072111600190FFE7019802B080BD00006D
:101BE00080B5FFF7BBF880BD80B594B008A8302160
:101BF000FEF7B2FB0020079006900590049003903A
:101C0000FFE70020029043F64000C4F202000168A2
:101C100041F080510160006800F08050029002980D
:101C2000FFE7FFE70020019047F20000C4F2000048
:101C3000016841F480410160006800F48040019037
:101C40000198FFE70220089001200B9010200C90D3
:101C500000200E9008A8FFF7D1FA18B1FFE7FEF7B1
:101C600045FEFFE70F2003900021049105910691A6
:101C7000079103A8FFF71CF918B1FFE7FEF736FE3E
:101C8000FFE714B080BD00004EF68851CEF200018F
:101C9000086840F47000086070470000FFE7FEE746
:101CA0004EF60C50CEF200000068C0F302207047E0
:101CB00082B08DF8070000919DF9070000280AD432
:101CC000FFE7009800019DF907104EF20042CEF2A6
:101CD000000288540BE0009800019DF8071001F005
:101CE0000F014EF61452CEF200028854FFE702B004
:101CF0007047000083B00290029800F00700009047
:101D00004EF60C51CEF200010868019001984FF692
:101D1000FF02104001900198009A40EA0220002240
:101D2000C0F2FA52104301900198086003B0704766
:101D300080B582B000200190FFF71EF8FFF754FF36
:101D4000FFF7C6FD4FF47A70FEF7D8FD0121084673
:101D5000FEF766FB9FED0A0B0820FEF7C1FBFFE7CD
:101D60004FF47A70FEF7CAFD41F20040C4F202005F
:101D70004FF48061FEF7C0FFF2E700BF00BF00BF75
:101D8000000000006C466B414FEA1153A3F58063DD
:101D9000D3F11E03A8BFD3F1200C08DB4FF00042A3
:101DA00042EAC12252EA505232FA03F07047094225
:101DB0000BD4102BC4BF0020704703F5787CBCF116
:101DC000FF3F05D04FF0FF3070474FF000007047E5
:101DD00070B500F0B1F800BF499224800020704730
:101DE000F0E7000070B5DFF848C11CEA111E1EBF05
:101DF0001CEA13159EEA0C0F95EA0C0F00F06F8099
:101E000081EA03044EEAD47EAE4421EA4C1123EA6F
:101E10004C1341F4801143F48013AEF17F7EA1FB9B
:101E2000024CA0FB0365361955EB0C05A1FB034CD6
:101E30004CF10003A0FB021C16EB0C06654153F1AC
:101E40000003094218BF46F0010613F4007F0BD1CE
:101E50004FEA03314FEA053041EA155140EA165086
:101E600034036FF003020AE04FEAC3214FEAC520B2
:101E700041EA555140EA5650F4026FF0020202EB7B
:101E80002E4201EB025585EACE710AD05FEA440C7E
:101E900018BF24F0004450F1000041F1000120EA95
:101EA000D47040F2FE7C624500D270BDA84214BFDF
:101EB0004FF080444FF04044002E08BF0024BEF194
:101EC000806FA8BFA1F1C041BDE8704080F2828060
:101ED00001F1C04101F000414FF0000070470CEAF1
:101EE00013159EEA0C0F18BF95EA0C0F06D081EA75
:101EF000030E4FF000000EF0004170BD00F01CF822
:101F00008900013E00F007B800F009B84FEA430C21
:101F10005FEA5C5C08D081EA030100F05BB84FEA3D
:101F2000410C5FEA5C5CF6D102494FF0000070475B
:101F30000000FF070000F87F0EF1020E2EF0030EE6
:101F40005EF8046B364205D4012A43EB030515F510
:101F5000001F12D8012841EB010C1CF5001F0CD802
:101F60000ED14FEAD17C0CEB4C0C0CF1020C15F5A8
:101F7000001F08BF4CEBD37C04E04FF0080C01E0DD
:101F80004FEAD37C0CEB4C0526FA05F606F0070663
:101F9000B6F1040C06D20EEB860CBDE870404CF096
:101FA000010C6047DFE80CF0090B02024FF0004122
:101FB000A1F500214FF0000070BD19461046012820
:101FC00051EB010418BFD4F5001484BF002001F0C8
:101FD000004170BD0808A0F500114FEA31017047BB
:101FE000F1EE100A4FF6FF71C0F2C03120EA010095
:101FF00040F04070E1EE100A704700000000000061
:102000000000010203040607080900003020000850
:102010000000002010000000C4010008402000085B
:102020001000002068060000E00100080000000029
:102030000024F40001000000100000000000000077
:040000050800018965
:00000001FF
